:020000000C945E
:10000200CB000C9488010C9400000C9400000C941A
:1000120000000C9400000C94C3010C9400000C949A
:1000220000000C9400000C9400000C94D0010C947D
:1000320000000C9400000C9400000C9400000C943E
:1000420000000C9400000C9400000C9400000C942E
:1000520000001027E80364000A00010000100001FC
:100062001000010000000D0A00636F756E743A0003
:100072006C656431206F6E006C656431206F66665A
:10008200006C656432206F6E006C656432206F66AE
:1000920066006C656433206F6E006C656433206F9C
:1000A2006666006C656434206F6E006C6564342093
:1000B2006F6666006C656435206F6E006C65643532
:1000C200206F6666006C656436206F6E006C656436
:1000D20036206F6666006C656437206F6E006C6553
:1000E2006437206F6666006C656438206F6E006C42
:1000F200656438206F6666007365742074696D6587
:10010200000001002D4E414E00494E460000030002
:1001120060016800070063016B0003006A01680068
:1001220008006D017200090075017A0008007E0165
:100132008300090086018B0008008F0194000900EA
:1001420097019C000800A001A5000900A801AD00CC
:100152000800B101B6000900B901BE000800C201E1
:10016200C7000900CA01CF000800D301D800090066
:10017200DB01E0000800E401E9000900EC01F10004
:100182000900F501FA0002000600660001002802DB
:1001920004010000F894EE27ECBBF1E0FBBFEBBFDB
:1001A200E5BFF8E1F1BDE1BD8DE0A2E0BB27ED9333
:1001B2008A95E9F780E094E0A0E6ED930197E9F7EC
:1001C200E0E1F1E085919591009761F0A591B591FB
:1001D20005901590BF01F00105900D920197E1F78E
:1001E200FB01F0CFEFE5EDBFE4E0EEBFC0E6D1E00A
:1001F2000C94FB00E0E0EBBBEABBE8BBE2E0E7BB50
:10020200E0E0E5BBEFEFE4BBE0E0E2BBE2E0E1BB54
:10021200E0E0EFBDECE0EEBDE0E0EDBDECBDE9BD40
:10022200E8BDE0E1E9BFEBB7E064EBBFE3E0E5BFC7
:10023200E0E0E4BFE0E4EABFE0E0EBB9E8E9EAB914
:10024200E6E8E0BDE0E0E0BDE3E3E9B9E0E0E7B91C
:10025200E3E8E6B97894E0E0EA93B9D16627772734
:10026200E0930C02F0930D0260930E0270930F0262
:10027200A4EFB1E080E090E00E942E05DF01CB0107
:10028200EFEFF3E060E070E00E946605E093100299
:10029200F093110260931202709313020E94B5034D
:1002A2000E9466050E94C2030E94B5030E94930544
:1002B2000E94CB030E94D403E0E6F1E00E94E00337
:1002C200E8ECF0E0FA93EA930E940A04C4CFFFCF6D
:1002D2005D9BFECFE881ECB985C11A930A93EA814E
:1002E200FB81FA93EA930E94F5021E2F00E00117A8
:1002F20050F4AA81BB81EE27A00FBE1FEC91EA93B6
:10030200E7DF0F5FF4CF198108810C94A1030E94EB
:10031200E403F20131962F01D201E4E6F0E00E94FB
:10032200530566277727E0930002F093010260935A
:10033200020270930302D201E4E6F0E00E9490050B
:10034200DF01EAE0F0E00E945305662777270E946A
:10035200C203D201EAE0F0E00E9490056627772707
:100362000E94CB03E3E6F1E00E94E003E091000289
:10037200E05DEA93ADDF0E94D403EAE6F1E00E9479
:10038200E00332C0AA93EA93EFB7EA93E8B3A2E09C
:10039200EA27E8BBE991EFBFE991A99118950E947C
:1003A200E4031A931CB11A9393DF1A3011F01D3033
:1003B20071F4A4E1B2E0A60DB71DE0E0EC93E4E134
:1003C200F2E0FA93EA931ED0662477240CC0E3E1AC
:1003D200F0E06E167F063CF4F30131963F0131974F
:1003E200EC5EFD4F10831991E991EFBFF991E9910C
:1003F200B991A9919991899179916991F9901990FD
:10040200099018950E94F203EDE6F1E00E94F703CD
:1004120009F0A89A0E94F203E5E7F1E00E94F703CF
:1004220009F0A8980E94F203EEE7F1E00E94F703B8
:1004320009F0A99A0E94F203E6E8F1E00E94F703AC
:1004420009F0A9980E94F203EFE8F1E00E94F70395
:1004520009F0AA9A0E94F203E7E9F1E00E94F70389
:1004620009F0AA980E94F203E0EAF1E00E94F70381
:1004720009F0AB9A0E94F203E8EAF1E00E94F70366
:1004820009F0AB980E94F203E1EBF1E00E94F7035E
:1004920009F0AC9A0E94F203E9EBF1E00E94F70343
:1004A20009F0AC980E94F203E2ECF1E00E94F7033B
:1004B20009F0AD9A0E94F203EAECF1E00E94F70320
:1004C20009F0AD980E94F203E3EDF1E00E94F70318
:1004D20009F0AE9A0E94F203EBEDF1E00E94F703FD
:1004E20009F0AE980E94F203E4EEF1E00E94F703F5
:1004F20009F0AF9A0E94F203ECEEF1E00E94F703DA
:1005020009F0AF980E94F203E5EFF1E0FA93EA9363
:10051200E8E0EA930E94FF02E03011F00C94E60258
:10052200E881F9813996FA93EA930E942C030E949A
:10053200FD03A091FE01B091FF0115971CF40E94EA
:10054200020402C0E5E0F0E00E94FD030E94020402
:100552000E9424050E947204DF01CB01E0E0F0E07A
:1005620060E07FE30E94F70409F010F40C94BC02EF
:100572000E94020402C0E0E0F0E00E94FD03A091AC
:10058200FE01B091FF010E942905E0E0F2E16AE775
:1005920070E00E944E05DF01CB01E0E0F1E060E097
:1005A20070E00E948B050E9472040E94B4050E94B2
:1005B2008C030E943B040E94FD030E9402040E94DD
:1005C2001F05EBBDE091FE01EABD22960895E88188
:1005D200E7B98BE18A95F1F7369A349BFECF349ACC
:1005E200E4B1F5B121960895A991B991EE27FF27BB
:1005F2006D91662311F03196FBCF08956627772718
:100602008991E991F991A991B991882349F08A9543
:100612006D917191671721F46623B9F7EE2708955A
:10062200671BE1F3E1E008F4E2500895AA81BB817F
:10063200CD01E881F9817191772311F4FC0109C0A0
:100642006D916717C1F30196DC01662391F7EE27DE
:10065200FF270C94A103B981A881EC91EA930E942F
:10066200AB03EE2311F01196F8CFE894EC91ED3242
:1006720011F4689402C0EB3209F4119666277727C9
:10068200EC91EA930E94A303EE2379F0FB01660F3B
:10069200771F660F771F6E0F7F1F660F771FED9113
:1006A200FF27E0536E0F7F1FEBCFFB011EF4E09597
:1006B200F0953196229608957B816A81F981E881CD
:1006C20077FB770F67FD7160972F9E5781F078F067
:1006D200983190F4AA27BB27882708948795B79565
:1006E200A7959A95D1F7EA23FB23682305C0E894DE
:1006F2007727EE27FF2766276F77769508F46068DD
:1007020077F9A991B99189919991EA17FB0768073D
:10071200790797FB08950E9407040E94B4050E947E
:100722005D030E94AF0519F40E94070409C0E6F7B1
:100732000E940704A0E0B0E080E89FE30E94A504C5
:1007420024960895E1E0F991F03310F0FA3308F0BD
:10075200EE270895E1E0F991F03229F0F93010F036
:10076200FE3008F0EE270895A0911002B091110218
:100772008091120290911302EAE0F0E060E070E0F2
:100782000895E0930402F0930502609306027093C9
:1007920007020895E0930802F093090260930A02A7
:1007A20070930B020895E0910402E05DEA930E94C7
:1007B2006901E0910802E05DEA930C946901FA9301
:1007C200EA930C946E010A921A92FA926A937A93BD
:1007D2008A939A93AA93BA93EA93FA93EFB7EA9316
:1007E2000895E881F981FA93EA930895FA93EA93D6
:1007F2000E94170330970895E093FE01F093FF01E2
:100802000895E091FE01F091FF0108950E94AA056A
:100812000895E991F991309639F080ED97E00197CA
:10082200F1F7A8953197C9F7089550E8572711F4C1
:100832005F93CAC05F3F31F0660F000C5795679512
:10084200752F08955F9300200AF0CAC0C3C050E814
:10085200192E1522880F991F9527550F879550E855
:10086200072E0522660F771F7527550F6795089586
:10087200689401C0E8945F93F2DF703818F07F3F0C
:1008820008F4A2C056E1571BAAF4519558300EF451
:10089200593030F0EFEFFFEF6FEF7FE777F91AC0D3
:1008A20077275523B9F0EE0FFF1F661F771F5A9562
:1008B200D1F710C07727583028F0EF2FF62F672F87
:1008C2005850F9CF552331F076956795F795E7950E
:1008D2005A95D1F700200AF4A9D05F91089568943F
:1008E20001C0E894309760407040B1F0002426F0D7
:1008F200772312F400949AD0172E7EE1112032F061
:100902007A95EE0FFF1F661F111CF9CFEF2FF62FFE
:10091200612D5F938ADF5F9108954F93AF01FD01CF
:10092200DA01AB01BC01CA01402D012C142E4F91FA
:100932000895EA0FFB1F681F0895E095F0956095F2
:10094200EF5FFF4F6F4F08955F9381DF903849F15A
:1009520050E81526703821F1572F591B2BF112F44C
:10096200DCDFFACF583118F0AA27BB278827583086
:1009720028F0AB2FB82F88275850F9CF552329F0EC
:100982008695B795A7955A95D9F7502D512572F0AE
:10099200D0DF38F46795F795E795739513F420C087
:1009A200BCDF43DF5F910895D8F7FBCFEA1BFB0B57
:1009B200680B51F010F40094C0DF662392F3EE0F3F
:1009C200FF1F661F7A95CBF7EE27FF27662777274B
:1009D2005F910895EFEFFFEF6FE77FEF5F9108956B
:1009E200EFEFFFEF6FE77FE75F91089599239AF0AA
:1009F200772342F0971748F029F4AE17BF0786070E
:100A020020F031F098948894089598940894089569
:100A12001894889408957723C2F7971798F3A9F743
:100A2200EA17FB07680788F399F3ECCFF095609516
:100A32007095E195FF4F6F4F7F4F0895EF2FFF277E
:100A4200E7FDFFEF08956F2F660F660B762F08956F
:100A52008B2F880F880B982F08957A9F702D6B9F8C
:100A6200700DF89F700DE99F700D6A9F602D710DDA
:100A7200FB9F600D711DE89F600D711D8827FA9F15
:100A8200F02D610D781FEB9FF00D611D781FEA9F1D
:100A9200E02DF10D681F781F089548D0DEDF0EF4B7
:100AA200C5DF08950024112490E1AA0FBB1F001C8A
:100AB200111C0E1A1F0A18F40E0E1F1E01C0A1608F
:100AC2009A9599F7FD01D00108953F934F935F9353
:100AD200002411244427552730E2AA0FBB1F881F88
:100AE200991F001C111C441F551F0E1A1F0A460B8A
:100AF200570B28F40E0E1F1E461F571F01C0A16080
:100B02003A9559F7FD01BC01D001CA015F914F919D
:100B12003F9108950BD0D9DF0EF488DF0895C2DF2C
:100B2200FD010895D2DFFD01BC010895E89477FF2D
:100B320002C07CDF689497FF0BC00024A095B0959B
:100B4200809590951196801D901D00F8039400FAEF
:100B52000895E881F9816A817B810895E883F983A8
:100B62006A837B8308957A936A93FA93EA9308954A
:00000001FF
